{
  "contractName": "Autobioscrypt",
  "abi": [
    {
      "constant": false,
      "inputs": [
        {
          "name": "_content",
          "type": "string"
        },
        {
          "name": "_userid",
          "type": "string"
        }
      ],
      "name": "setInstructor",
      "outputs": [],
      "payable": false,
      "stateMutability": "nonpayable",
      "type": "function"
    },
    {
      "constant": true,
      "inputs": [],
      "name": "getInstructor",
      "outputs": [
        {
          "name": "",
          "type": "string"
        }
      ],
      "payable": false,
      "stateMutability": "view",
      "type": "function"
    }
  ],
  "bytecode": "0x608060405234801561001057600080fd5b50610335806100206000396000f30060806040526004361061004c576000357c0100000000000000000000000000000000000000000000000000000000900463ffffffff16806314d5f685146100515780633c1b81a514610100575b600080fd5b34801561005d57600080fd5b506100fe600480360381019080803590602001908201803590602001908080601f0160208091040260200160405190810160405280939291908181526020018383808284378201915050505050509192919290803590602001908201803590602001908080601f0160208091040260200160405190810160405280939291908181526020018383808284378201915050505050509192919290505050610190565b005b34801561010c57600080fd5b506101156101c2565b6040518080602001828103825283818151815260200191508051906020019080838360005b8381101561015557808201518184015260208101905061013a565b50505050905090810190601f1680156101825780820380516001836020036101000a031916815260200191505b509250505060405180910390f35b81600090805190602001906101a6929190610264565b5080600190805190602001906101bd929190610264565b505050565b606060018054600181600116156101000203166002900480601f01602080910402602001604051908101604052809291908181526020018280546001816001161561010002031660029004801561025a5780601f1061022f5761010080835404028352916020019161025a565b820191906000526020600020905b81548152906001019060200180831161023d57829003601f168201915b5050505050905090565b828054600181600116156101000203166002900490600052602060002090601f016020900481019282601f106102a557805160ff19168380011785556102d3565b828001600101855582156102d3579182015b828111156102d25782518255916020019190600101906102b7565b5b5090506102e091906102e4565b5090565b61030691905b808211156103025760008160009055506001016102ea565b5090565b905600a165627a7a723058207289b9d503e0ce06283db7c271ae42141efe67b7bb6ee28859bb4dcce9987cd00029",
  "source": "pragma solidity ^0.4.18;\r\n\r\ncontract Autobioscrypt {\r\n    \r\n   string content;\r\n   string userid;\r\n   \r\n   function setInstructor(string _content, string _userid) public {\r\n       content = _content;\r\n       userid = _userid;\r\n\r\n   }\r\n   \r\n   function getInstructor() public constant returns (string) {\r\n       return(userid);\r\n   }\r\n    \r\n}",
  "sourcePath": "C:\\autobioscrypt\\bigchain_with_actual\\contracts\\Autobioscrypt.sol",
  "compiler": {
    "name": "solc",
    "version": "0.4.24+commit.e67f0147.Emscripten.clang"
  },
  "schemaVersion": "2.0.1",
  "updatedAt": "2018-12-22T09:12:53.323Z"
}